{
  "_format": "hh-sol-artifact-1",
  "contractName": "TokenExchange",
  "sourceName": "contracts/exchange.sol",
  "abi": [
    {
      "inputs": [],
      "stateMutability": "nonpayable",
      "type": "constructor"
    },
    {
      "anonymous": false,
      "inputs": [
        {
          "indexed": true,
          "internalType": "address",
          "name": "previousOwner",
          "type": "address"
        },
        {
          "indexed": true,
          "internalType": "address",
          "name": "newOwner",
          "type": "address"
        }
      ],
      "name": "OwnershipTransferred",
      "type": "event"
    },
    {
      "inputs": [
        {
          "internalType": "uint256",
          "name": "max_exchange_rate",
          "type": "uint256"
        },
        {
          "internalType": "uint256",
          "name": "min_exchange_rate",
          "type": "uint256"
        }
      ],
      "name": "addLiquidity",
      "outputs": [],
      "stateMutability": "payable",
      "type": "function"
    },
    {
      "inputs": [
        {
          "internalType": "uint256",
          "name": "amountTokens",
          "type": "uint256"
        }
      ],
      "name": "createPool",
      "outputs": [],
      "stateMutability": "payable",
      "type": "function"
    },
    {
      "inputs": [],
      "name": "exchange_name",
      "outputs": [
        {
          "internalType": "string",
          "name": "",
          "type": "string"
        }
      ],
      "stateMutability": "view",
      "type": "function"
    },
    {
      "inputs": [],
      "name": "getReserves",
      "outputs": [
        {
          "internalType": "uint256",
          "name": "",
          "type": "uint256"
        },
        {
          "internalType": "uint256",
          "name": "",
          "type": "uint256"
        }
      ],
      "stateMutability": "view",
      "type": "function"
    },
    {
      "inputs": [],
      "name": "getSwapFee",
      "outputs": [
        {
          "internalType": "uint256",
          "name": "",
          "type": "uint256"
        },
        {
          "internalType": "uint256",
          "name": "",
          "type": "uint256"
        }
      ],
      "stateMutability": "view",
      "type": "function"
    },
    {
      "inputs": [],
      "name": "owner",
      "outputs": [
        {
          "internalType": "address",
          "name": "",
          "type": "address"
        }
      ],
      "stateMutability": "view",
      "type": "function"
    },
    {
      "inputs": [
        {
          "internalType": "uint256",
          "name": "max_exchange_rate",
          "type": "uint256"
        },
        {
          "internalType": "uint256",
          "name": "min_exchange_rate",
          "type": "uint256"
        }
      ],
      "name": "removeAllLiquidity",
      "outputs": [],
      "stateMutability": "payable",
      "type": "function"
    },
    {
      "inputs": [
        {
          "internalType": "uint256",
          "name": "amountETH",
          "type": "uint256"
        },
        {
          "internalType": "uint256",
          "name": "max_exchange_rate",
          "type": "uint256"
        },
        {
          "internalType": "uint256",
          "name": "min_exchange_rate",
          "type": "uint256"
        }
      ],
      "name": "removeLiquidity",
      "outputs": [],
      "stateMutability": "payable",
      "type": "function"
    },
    {
      "inputs": [],
      "name": "renounceOwnership",
      "outputs": [],
      "stateMutability": "nonpayable",
      "type": "function"
    },
    {
      "inputs": [
        {
          "internalType": "uint256",
          "name": "max_exchange_rate",
          "type": "uint256"
        }
      ],
      "name": "swapETHForTokens",
      "outputs": [],
      "stateMutability": "payable",
      "type": "function"
    },
    {
      "inputs": [
        {
          "internalType": "uint256",
          "name": "amountTokens",
          "type": "uint256"
        },
        {
          "internalType": "uint256",
          "name": "max_exchange_rate",
          "type": "uint256"
        }
      ],
      "name": "swapTokensForETH",
      "outputs": [],
      "stateMutability": "payable",
      "type": "function"
    },
    {
      "inputs": [],
      "name": "token",
      "outputs": [
        {
          "internalType": "contract Token",
          "name": "",
          "type": "address"
        }
      ],
      "stateMutability": "view",
      "type": "function"
    },
    {
      "inputs": [
        {
          "internalType": "address",
          "name": "newOwner",
          "type": "address"
        }
      ],
      "name": "transferOwnership",
      "outputs": [],
      "stateMutability": "nonpayable",
      "type": "function"
    }
  ],
  "bytecode": "0x60806040526040518060400160405280600381526020017f4445580000000000000000000000000000000000000000000000000000000000815250600190816200004a91906200049d565b50735fbdb2315678afecb367f032d93f642f64180aa3600260006101000a81548173ffffffffffffffffffffffffffffffffffffffff021916908373ffffffffffffffffffffffffffffffffffffffff160217905550600260009054906101000a900473ffffffffffffffffffffffffffffffffffffffff16600360006101000a81548173ffffffffffffffffffffffffffffffffffffffff021916908373ffffffffffffffffffffffffffffffffffffffff160217905550600060045560006005556000600c556003600d556064600e55620186a06010553480156200013057600080fd5b5062000151620001456200015760201b60201c565b6200015f60201b60201c565b62000584565b600033905090565b60008060009054906101000a900473ffffffffffffffffffffffffffffffffffffffff169050816000806101000a81548173ffffffffffffffffffffffffffffffffffffffff021916908373ffffffffffffffffffffffffffffffffffffffff1602179055508173ffffffffffffffffffffffffffffffffffffffff168173ffffffffffffffffffffffffffffffffffffffff167f8be0079c531659141344cd1fd0a4f28419497f9722a3daafe3b4186f6b6457e060405160405180910390a35050565b600081519050919050565b7f4e487b7100000000000000000000000000000000000000000000000000000000600052604160045260246000fd5b7f4e487b7100000000000000000000000000000000000000000000000000000000600052602260045260246000fd5b60006002820490506001821680620002a557607f821691505b602082108103620002bb57620002ba6200025d565b5b50919050565b60008190508160005260206000209050919050565b60006020601f8301049050919050565b600082821b905092915050565b600060088302620003257fffffffffffffffffffffffffffffffffffffffffffffffffffffffffffffffff82620002e6565b620003318683620002e6565b95508019841693508086168417925050509392505050565b6000819050919050565b6000819050919050565b60006200037e62000378620003728462000349565b62000353565b62000349565b9050919050565b6000819050919050565b6200039a836200035d565b620003b2620003a98262000385565b848454620002f3565b825550505050565b600090565b620003c9620003ba565b620003d68184846200038f565b505050565b5b81811015620003fe57620003f2600082620003bf565b600181019050620003dc565b5050565b601f8211156200044d576200041781620002c1565b6200042284620002d6565b8101602085101562000432578190505b6200044a6200044185620002d6565b830182620003db565b50505b505050565b600082821c905092915050565b6000620004726000198460080262000452565b1980831691505092915050565b60006200048d83836200045f565b9150826002028217905092915050565b620004a88262000223565b67ffffffffffffffff811115620004c457620004c36200022e565b5b620004d082546200028c565b620004dd82828562000402565b600060209050601f83116001811462000515576000841562000500578287015190505b6200050c85826200047f565b8655506200057c565b601f1984166200052586620002c1565b60005b828110156200054f5784890151825560018201915060208501945060208101905062000528565b868310156200056f57848901516200056b601f8916826200045f565b8355505b6001600288020188555050505b505050505050565b6140a080620005946000396000f3fe6080604052600436106100c25760003560e01c80638da5cb5b1161007f578063d4cadf6811610059578063d4cadf68146101dd578063f2fde38b14610209578063f694f7d114610232578063fc0c546a1461025d576100c2565b80638da5cb5b1461017a5780639cd441da146101a5578063a22280a6146101c1576100c2565b80630902f1ac146100c75780632eab2841146100f357806358ad6de41461010f578063715018a61461012b5780638259e6a014610142578063857620e11461015e575b600080fd5b3480156100d357600080fd5b506100dc610288565b6040516100ea929190612e2a565b60405180910390f35b61010d60048036038101906101089190612e84565b610299565b005b61012960048036038101906101249190612eb1565b610a83565b005b34801561013757600080fd5b50610140610af7565b005b61015c60048036038101906101579190612e84565b610b0b565b005b61017860048036038101906101739190612ef1565b610ebb565b005b34801561018657600080fd5b5061018f6116a2565b60405161019c9190612f85565b60405180910390f35b6101bf60048036038101906101ba9190612eb1565b6116cb565b005b6101db60048036038101906101d69190612eb1565b611d7a565b005b3480156101e957600080fd5b506101f261281b565b604051610200929190612e2a565b60405180910390f35b34801561021557600080fd5b50610230600480360381019061022b9190612fcc565b61282c565b005b34801561023e57600080fd5b506102476128af565b6040516102549190613089565b60405180910390f35b34801561026957600080fd5b5061027261293d565b60405161027f919061310a565b60405180910390f35b600080600554600454915091509091565b600034116102dc576040517f08c379a00000000000000000000000000000000000000000000000000000000081526004016102d390613171565b60405180910390fd5b3373ffffffffffffffffffffffffffffffffffffffff1631341115610336576040517f08c379a000000000000000000000000000000000000000000000000000000000815260040161032d906131dd565b60405180910390fd5b6000600e54600d5434610349919061322c565b610353919061329d565b9050806007600082825461036791906132ce565b925050819055506000813461037c9190613302565b90506103f36040518060400160405280600581526020017f5377617020000000000000000000000000000000000000000000000000000000815250826040518060400160405280600381526020017f7765690000000000000000000000000000000000000000000000000000000000815250612963565b60008160055461040391906132ce565b670de0b6b3a764000060105460045461041c919061322c565b610426919061322c565b610430919061329d565b90506104716040518060400160405280601581526020017f7769746820746f6b656e2f65746820726174653a20000000000000000000000081525082612a02565b8060105411156104cc57838160105461048a9190613302565b11156104cb576040517f08c379a00000000000000000000000000000000000000000000000000000000081526004016104c290613382565b60405180910390fd5b5b6000601054670de0b6b3a7640000846104e5919061329d565b836104f0919061322c565b6104fa919061329d565b90506105716040518060400160405280600881526020017f7265636569766520000000000000000000000000000000000000000000000000815250826040518060400160405280600781526020017f20746f6b656e7300000000000000000000000000000000000000000000000000815250612963565b6001816004546105819190613302565b10156105c2576040517f08c379a00000000000000000000000000000000000000000000000000000000081526004016105b9906133ee565b60405180910390fd5b600360009054906101000a900473ffffffffffffffffffffffffffffffffffffffff1673ffffffffffffffffffffffffffffffffffffffff1663a9059cbb33836040518363ffffffff1660e01b815260040161061f92919061340e565b6020604051808303816000875af115801561063e573d6000803e3d6000fd5b505050506040513d601f19601f82011682018060405250810190610662919061346f565b506106a26040518060400160405280600e81526020017f6d73672e73656e6465722069732000000000000000000000000000000000000081525033612a9e565b61077c6040518060400160405280601881526020017f23746f6b656e73206f66206d73672e73656e646572203d200000000000000000815250600360009054906101000a900473ffffffffffffffffffffffffffffffffffffffff1673ffffffffffffffffffffffffffffffffffffffff166370a08231336040518263ffffffff1660e01b81526004016107369190612f85565b602060405180830381865afa158015610753573d6000803e3d6000fd5b505050506040513d601f19601f8201168201806040525081019061077791906134b1565b612a02565b60005b6009805490508110156108ce576000600c548660086000600986815481106107aa576107a96134de565b5b9060005260206000200160009054906101000a900473ffffffffffffffffffffffffffffffffffffffff1673ffffffffffffffffffffffffffffffffffffffff1673ffffffffffffffffffffffffffffffffffffffff1681526020019081526020016000205461081a919061322c565b610824919061329d565b905080600b60006009858154811061083f5761083e6134de565b5b9060005260206000200160009054906101000a900473ffffffffffffffffffffffffffffffffffffffff1673ffffffffffffffffffffffffffffffffffffffff1673ffffffffffffffffffffffffffffffffffffffff16815260200190815260200160002060008282546108b391906132ce565b925050819055505080806108c69061350d565b91505061077f565b50600360009054906101000a900473ffffffffffffffffffffffffffffffffffffffff1673ffffffffffffffffffffffffffffffffffffffff166370a08231306040518263ffffffff1660e01b815260040161092a9190612f85565b602060405180830381865afa158015610947573d6000803e3d6000fd5b505050506040513d601f19601f8201168201806040525081019061096b91906134b1565b600481905550476005819055506109b96040518060400160405280601481526020017f746f6b656e5f6665655f72657365727665733a20000000000000000000000000815250600654612a02565b6109fa6040518060400160405280601281526020017f6574685f6665655f72657365727665733a200000000000000000000000000000815250600754612a02565b610a3b6040518060400160405280601381526020017f6e657720746f6b656e5f726573657276653a2000000000000000000000000000815250600454612a02565b610a7c6040518060400160405280601181526020017f6e6577206574685f726573657276653a20000000000000000000000000000000815250600554612a02565b5050505050565b6000600c549050600081600554600860003373ffffffffffffffffffffffffffffffffffffffff1673ffffffffffffffffffffffffffffffffffffffff16815260200190815260200160002054610ada919061322c565b610ae4919061329d565b9050610af1818585610ebb565b50505050565b610aff612b3a565b610b096000612bb8565b565b610b13612b3a565b600060045414610b58576040517f08c379a0000000000000000000000000000000000000000000000000000000008152600401610b4f906135a1565b60405180910390fd5b600060055414610b9d576040517f08c379a0000000000000000000000000000000000000000000000000000000008152600401610b949061360d565b60405180910390fd5b60003411610be0576040517f08c379a0000000000000000000000000000000000000000000000000000000008152600401610bd790613679565b60405180910390fd5b6000600360009054906101000a900473ffffffffffffffffffffffffffffffffffffffff1673ffffffffffffffffffffffffffffffffffffffff166370a08231336040518263ffffffff1660e01b8152600401610c3d9190612f85565b602060405180830381865afa158015610c5a573d6000803e3d6000fd5b505050506040513d601f19601f82011682018060405250810190610c7e91906134b1565b905080821115610cc3576040517f08c379a0000000000000000000000000000000000000000000000000000000008152600401610cba9061370b565b60405180910390fd5b60008211610d06576040517f08c379a0000000000000000000000000000000000000000000000000000000008152600401610cfd90613777565b60405180910390fd5b600360009054906101000a900473ffffffffffffffffffffffffffffffffffffffff1673ffffffffffffffffffffffffffffffffffffffff166323b872dd3330856040518463ffffffff1660e01b8152600401610d6593929190613797565b6020604051808303816000875af1158015610d84573d6000803e3d6000fd5b505050506040513d601f19601f82011682018060405250810190610da8919061346f565b50600360009054906101000a900473ffffffffffffffffffffffffffffffffffffffff1673ffffffffffffffffffffffffffffffffffffffff166370a08231306040518263ffffffff1660e01b8152600401610e049190612f85565b602060405180830381865afa158015610e21573d6000803e3d6000fd5b505050506040513d601f19601f82011682018060405250810190610e4591906134b1565b60048190555034600581905550600554600454610e62919061322c565b600f81905550620186a0600c819055506064600860003373ffffffffffffffffffffffffffffffffffffffff1673ffffffffffffffffffffffffffffffffffffffff168152602001908152602001600020819055505050565b6000600860003373ffffffffffffffffffffffffffffffffffffffff1673ffffffffffffffffffffffffffffffffffffffff1681526020019081526020016000205403610f3d576040517f08c379a0000000000000000000000000000000000000000000000000000000008152600401610f3490613840565b60405180910390fd5b60008311610f80576040517f08c379a0000000000000000000000000000000000000000000000000000000008152600401610f77906138ac565b60405180910390fd5b610ff56040518060400160405280600781526020017f52656d6f76652000000000000000000000000000000000000000000000000000815250846040518060400160405280600481526020017f2077656900000000000000000000000000000000000000000000000000000000815250612963565b6000600c54600b60003373ffffffffffffffffffffffffffffffffffffffff1673ffffffffffffffffffffffffffffffffffffffff16815260200190815260200160002054600860003373ffffffffffffffffffffffffffffffffffffffff1673ffffffffffffffffffffffffffffffffffffffff16815260200190815260200160002054611084919061322c565b61108e919061329d565b90506000600c54600a60003373ffffffffffffffffffffffffffffffffffffffff1673ffffffffffffffffffffffffffffffffffffffff16815260200190815260200160002054600860003373ffffffffffffffffffffffffffffffffffffffff1673ffffffffffffffffffffffffffffffffffffffff1681526020019081526020016000205461111f919061322c565b611129919061329d565b905061116a6040518060400160405280601181526020017f616d6f756e744554485265776172643a2000000000000000000000000000000081525083612a02565b6111a96040518060400160405280601481526020017f616d6f756e74546f6b656e735265776172643a2000000000000000000000000081525082612a02565b6000670de0b6b3a76400006005546111c1919061329d565b6010546004546111d1919061322c565b6111db919061329d565b905061121c6040518060400160405280601681526020017f41637475616c5f65786368616e67655f726174653a200000000000000000000081525082612a02565b8481111561125f576040517f08c379a00000000000000000000000000000000000000000000000000000000081526004016112569061393e565b60405180910390fd5b838110156112a2576040517f08c379a0000000000000000000000000000000000000000000000000000000008152600401611299906139d0565b60405180910390fd5b6000601054670de0b6b3a764000083896112bc919061322c565b6112c6919061329d565b6112d0919061329d565b90506113476040518060400160405280600881526020017f7265636569766520000000000000000000000000000000000000000000000000815250826040518060400160405280600581526020017f206261636b000000000000000000000000000000000000000000000000000000815250612963565b600360009054906101000a900473ffffffffffffffffffffffffffffffffffffffff1673ffffffffffffffffffffffffffffffffffffffff1663a9059cbb33858461139291906132ce565b6040518363ffffffff1660e01b81526004016113af92919061340e565b6020604051808303816000875af11580156113ce573d6000803e3d6000fd5b505050506040513d601f19601f820116820180604052508101906113f2919061346f565b503373ffffffffffffffffffffffffffffffffffffffff166108fc858961141991906132ce565b9081150290604051600060405180830381858888f19350505050158015611444573d6000803e3d6000fd5b5060006004549050600360009054906101000a900473ffffffffffffffffffffffffffffffffffffffff1673ffffffffffffffffffffffffffffffffffffffff166370a08231306040518263ffffffff1660e01b81526004016114a79190612f85565b602060405180830381865afa1580156114c4573d6000803e3d6000fd5b505050506040513d601f19601f820116820180604052508101906114e891906134b1565b60048190555047600581905550600554600454611505919061322c565b600f819055506000600c5490508160045482611521919061322c565b61152b919061329d565b600c819055506000828483611540919061322c565b61154a919061329d565b905080600860003373ffffffffffffffffffffffffffffffffffffffff1673ffffffffffffffffffffffffffffffffffffffff168152602001908152602001600020600082825461159b9190613302565b925050819055506000600860003373ffffffffffffffffffffffffffffffffffffffff1673ffffffffffffffffffffffffffffffffffffffff168152602001908152602001600020540361169657600080600090505b60098054905081101561168a573373ffffffffffffffffffffffffffffffffffffffff1660098281548110611629576116286134de565b5b9060005260206000200160009054906101000a900473ffffffffffffffffffffffffffffffffffffffff1673ffffffffffffffffffffffffffffffffffffffff16036116775780915061168a565b80806116829061350d565b9150506115f1565b5061169481612c7c565b505b50505050505050505050565b60008060009054906101000a900473ffffffffffffffffffffffffffffffffffffffff16905090565b6000341161170e576040517f08c379a000000000000000000000000000000000000000000000000000000000815260040161170590613a3c565b60405180910390fd5b6000600360009054906101000a900473ffffffffffffffffffffffffffffffffffffffff1673ffffffffffffffffffffffffffffffffffffffff166370a08231336040518263ffffffff1660e01b815260040161176b9190612f85565b602060405180830381865afa158015611788573d6000803e3d6000fd5b505050506040513d601f19601f820116820180604052508101906117ac91906134b1565b90506117ed6040518060400160405280600d81526020017f546f6b656e537570706c793a200000000000000000000000000000000000000081525082612a02565b61182c6040518060400160405280601381526020017f4d61785f65786368616e67655f726174653a200000000000000000000000000081525084612a02565b61186b6040518060400160405280601381526020017f4d696e5f65786368616e67655f726174653a200000000000000000000000000081525083612a02565b6000670de0b6b3a7640000600554611883919061329d565b601054600454611893919061322c565b61189d919061329d565b90506118de6040518060400160405280601681526020017f61637475616c5f65786368616e67655f726174653a200000000000000000000081525082612a02565b83811115611921576040517f08c379a000000000000000000000000000000000000000000000000000000000815260040161191890613ace565b60405180910390fd5b82811015611964576040517f08c379a000000000000000000000000000000000000000000000000000000000815260040161195b90613b60565b60405180910390fd5b600060055434600454611977919061322c565b611981919061329d565b90506119c26040518060400160405280600a81526020017f6d736756616c75653a200000000000000000000000000000000000000000000081525034612a02565b611a016040518060400160405280600e81526020017f616d6f756e74546f6b656e733a2000000000000000000000000000000000000081525082612a02565b82811115611a44576040517f08c379a0000000000000000000000000000000000000000000000000000000008152600401611a3b90613bf2565b60405180910390fd5b600360009054906101000a900473ffffffffffffffffffffffffffffffffffffffff1673ffffffffffffffffffffffffffffffffffffffff166323b872dd3330846040518463ffffffff1660e01b8152600401611aa393929190613797565b6020604051808303816000875af1158015611ac2573d6000803e3d6000fd5b505050506040513d601f19601f82011682018060405250810190611ae6919061346f565b5060006004549050600360009054906101000a900473ffffffffffffffffffffffffffffffffffffffff1673ffffffffffffffffffffffffffffffffffffffff166370a08231306040518263ffffffff1660e01b8152600401611b499190612f85565b602060405180830381865afa158015611b66573d6000803e3d6000fd5b505050506040513d601f19601f82011682018060405250810190611b8a91906134b1565b600481905550611bcf6040518060400160405280601181526020017f416464726573732e62616c616e63653a2000000000000000000000000000000081525047612a02565b47600581905550600554600454611be6919061322c565b600f819055506000805b600980549050811015611c865760098181548110611c1157611c106134de565b5b9060005260206000200160009054906101000a900473ffffffffffffffffffffffffffffffffffffffff1673ffffffffffffffffffffffffffffffffffffffff163373ffffffffffffffffffffffffffffffffffffffff1603611c7357600191505b8080611c7e9061350d565b915050611bf0565b5080611cf0576009339080600181540180825580915050600190039060005260206000200160009091909190916101000a81548173ffffffffffffffffffffffffffffffffffffffff021916908373ffffffffffffffffffffffffffffffffffffffff1602179055505b6000600c5490508260045482611d06919061322c565b611d10919061329d565b600c81905550828482611d23919061322c565b611d2d919061329d565b600860003373ffffffffffffffffffffffffffffffffffffffff1673ffffffffffffffffffffffffffffffffffffffff168152602001908152602001600020819055505050505050505050565b60008211611dbd576040517f08c379a0000000000000000000000000000000000000000000000000000000008152600401611db490613c5e565b60405180910390fd5b600360009054906101000a900473ffffffffffffffffffffffffffffffffffffffff1673ffffffffffffffffffffffffffffffffffffffff166370a08231336040518263ffffffff1660e01b8152600401611e189190612f85565b602060405180830381865afa158015611e35573d6000803e3d6000fd5b505050506040513d601f19601f82011682018060405250810190611e5991906134b1565b821115611e9b576040517f08c379a0000000000000000000000000000000000000000000000000000000008152600401611e9290613cca565b60405180910390fd5b6000600e54600d5484611eae919061322c565b611eb8919061329d565b90508060066000828254611ecc91906132ce565b9250508190555060008184611ee19190613302565b9050611f586040518060400160405280600581526020017f5377617020000000000000000000000000000000000000000000000000000000815250826040518060400160405280600681526020017f746f6b656e730000000000000000000000000000000000000000000000000000815250612963565b600081600454611f6891906132ce565b601054670de0b6b3a7640000600554611f81919061329d565b611f8b919061322c565b611f95919061329d565b9050611fd66040518060400160405280601581526020017f77697468206574682f746f6b656e20726174653a20000000000000000000000081525082612a02565b806010541115612031578381601054611fef9190613302565b1115612030576040517f08c379a000000000000000000000000000000000000000000000000000000000815260040161202790613382565b60405180910390fd5b5b6000601054670de0b6b3a7640000838561204b919061322c565b612055919061322c565b61205f919061329d565b90506120d66040518060400160405280600881526020017f7265636569766520000000000000000000000000000000000000000000000000815250826040518060400160405280600381526020017f7765690000000000000000000000000000000000000000000000000000000000815250612963565b6001670de0b6b3a7640000826005546120ef9190613302565b6120f9919061329d565b101561213a576040517f08c379a000000000000000000000000000000000000000000000000000000000815260040161213190613d36565b60405180910390fd5b6121796040518060400160405280600e81526020017f6d73672e73656e6465722069732000000000000000000000000000000000000081525033612a9e565b6121b86040518060400160405280600c81526020017f636f6e747261637420697320000000000000000000000000000000000000000081525030612a9e565b3373ffffffffffffffffffffffffffffffffffffffff166108fc829081150290604051600060405180830381858888f193505050501580156121fe573d6000803e3d6000fd5b506122d96040518060400160405280601781526020017f23746f6b656e73206f66206d73672e73656e6465723a20000000000000000000815250600360009054906101000a900473ffffffffffffffffffffffffffffffffffffffff1673ffffffffffffffffffffffffffffffffffffffff166370a08231336040518263ffffffff1660e01b81526004016122939190612f85565b602060405180830381865afa1580156122b0573d6000803e3d6000fd5b505050506040513d601f19601f820116820180604052508101906122d491906134b1565b612a02565b61239660405180606001604052806021815260200161404a60219139600360009054906101000a900473ffffffffffffffffffffffffffffffffffffffff1673ffffffffffffffffffffffffffffffffffffffff166370a08231306040518263ffffffff1660e01b81526004016123509190612f85565b602060405180830381865afa15801561236d573d6000803e3d6000fd5b505050506040513d601f19601f8201168201806040525081019061239191906134b1565b612a02565b600360009054906101000a900473ffffffffffffffffffffffffffffffffffffffff1673ffffffffffffffffffffffffffffffffffffffff166323b872dd3330896040518463ffffffff1660e01b81526004016123f593929190613797565b6020604051808303816000875af1158015612414573d6000803e3d6000fd5b505050506040513d601f19601f82011682018060405250810190612438919061346f565b506125136040518060400160405280602081526020017f23746f6b656e73206f6620636f6e747261637420616674657220737761703a20815250600360009054906101000a900473ffffffffffffffffffffffffffffffffffffffff1673ffffffffffffffffffffffffffffffffffffffff166370a08231306040518263ffffffff1660e01b81526004016124cd9190612f85565b602060405180830381865afa1580156124ea573d6000803e3d6000fd5b505050506040513d601f19601f8201168201806040525081019061250e91906134b1565b612a02565b60005b600980549050811015612665576000600c54866008600060098681548110612541576125406134de565b5b9060005260206000200160009054906101000a900473ffffffffffffffffffffffffffffffffffffffff1673ffffffffffffffffffffffffffffffffffffffff1673ffffffffffffffffffffffffffffffffffffffff168152602001908152602001600020546125b1919061322c565b6125bb919061329d565b905080600a6000600985815481106125d6576125d56134de565b5b9060005260206000200160009054906101000a900473ffffffffffffffffffffffffffffffffffffffff1673ffffffffffffffffffffffffffffffffffffffff1673ffffffffffffffffffffffffffffffffffffffff168152602001908152602001600020600082825461264a91906132ce565b9250508190555050808061265d9061350d565b915050612516565b50600360009054906101000a900473ffffffffffffffffffffffffffffffffffffffff1673ffffffffffffffffffffffffffffffffffffffff166370a08231306040518263ffffffff1660e01b81526004016126c19190612f85565b602060405180830381865afa1580156126de573d6000803e3d6000fd5b505050506040513d601f19601f8201168201806040525081019061270291906134b1565b600481905550476005819055506127506040518060400160405280601481526020017f746f6b656e5f6665655f72657365727665733a20000000000000000000000000815250600654612a02565b6127916040518060400160405280601281526020017f6574685f6665655f72657365727665733a200000000000000000000000000000815250600754612a02565b6127d26040518060400160405280601381526020017f6e657720746f6b656e5f726573657276653a2000000000000000000000000000815250600454612a02565b6128136040518060400160405280601181526020017f6e6577206574685f726573657276653a20000000000000000000000000000000815250600554612a02565b505050505050565b600080600d54600e54915091509091565b612834612b3a565b600073ffffffffffffffffffffffffffffffffffffffff168173ffffffffffffffffffffffffffffffffffffffff16036128a3576040517f08c379a000000000000000000000000000000000000000000000000000000000815260040161289a90613dc8565b60405180910390fd5b6128ac81612bb8565b50565b600180546128bc90613e17565b80601f01602080910402602001604051908101604052809291908181526020018280546128e890613e17565b80156129355780601f1061290a57610100808354040283529160200191612935565b820191906000526020600020905b81548152906001019060200180831161291857829003601f168201915b505050505081565b600360009054906101000a900473ffffffffffffffffffffffffffffffffffffffff1681565b6129fd83838360405160240161297b93929190613e48565b6040516020818303038152906040527f5970e089000000000000000000000000000000000000000000000000000000007bffffffffffffffffffffffffffffffffffffffffffffffffffffffff19166020820180517bffffffffffffffffffffffffffffffffffffffffffffffffffffffff8381831617835250505050612db9565b505050565b612a9a8282604051602401612a18929190613e8d565b6040516020818303038152906040527fb60e72cc000000000000000000000000000000000000000000000000000000007bffffffffffffffffffffffffffffffffffffffffffffffffffffffff19166020820180517bffffffffffffffffffffffffffffffffffffffffffffffffffffffff8381831617835250505050612db9565b5050565b612b368282604051602401612ab4929190613ebd565b6040516020818303038152906040527f319af333000000000000000000000000000000000000000000000000000000007bffffffffffffffffffffffffffffffffffffffffffffffffffffffff19166020820180517bffffffffffffffffffffffffffffffffffffffffffffffffffffffff8381831617835250505050612db9565b5050565b612b42612dd3565b73ffffffffffffffffffffffffffffffffffffffff16612b606116a2565b73ffffffffffffffffffffffffffffffffffffffff1614612bb6576040517f08c379a0000000000000000000000000000000000000000000000000000000008152600401612bad90613f39565b60405180910390fd5b565b60008060009054906101000a900473ffffffffffffffffffffffffffffffffffffffff169050816000806101000a81548173ffffffffffffffffffffffffffffffffffffffff021916908373ffffffffffffffffffffffffffffffffffffffff1602179055508173ffffffffffffffffffffffffffffffffffffffff168173ffffffffffffffffffffffffffffffffffffffff167f8be0079c531659141344cd1fd0a4f28419497f9722a3daafe3b4186f6b6457e060405160405180910390a35050565b6009805490508110612cc3576040517f08c379a0000000000000000000000000000000000000000000000000000000008152600401612cba90613fcb565b60405180910390fd5b60096001600980549050612cd79190613302565b81548110612ce857612ce76134de565b5b9060005260206000200160009054906101000a900473ffffffffffffffffffffffffffffffffffffffff1660098281548110612d2757612d266134de565b5b9060005260206000200160006101000a81548173ffffffffffffffffffffffffffffffffffffffff021916908373ffffffffffffffffffffffffffffffffffffffff1602179055506009805480612d8157612d80613feb565b5b6001900381819060005260206000200160006101000a81549073ffffffffffffffffffffffffffffffffffffffff0219169055905550565b612dd081612dc8612ddb612dfc565b63ffffffff16565b50565b600033905090565b60006a636f6e736f6c652e6c6f679050600080835160208501845afa505050565b612e07819050919050565b612e0f61401a565b565b6000819050919050565b612e2481612e11565b82525050565b6000604082019050612e3f6000830185612e1b565b612e4c6020830184612e1b565b9392505050565b600080fd5b612e6181612e11565b8114612e6c57600080fd5b50565b600081359050612e7e81612e58565b92915050565b600060208284031215612e9a57612e99612e53565b5b6000612ea884828501612e6f565b91505092915050565b60008060408385031215612ec857612ec7612e53565b5b6000612ed685828601612e6f565b9250506020612ee785828601612e6f565b9150509250929050565b600080600060608486031215612f0a57612f09612e53565b5b6000612f1886828701612e6f565b9350506020612f2986828701612e6f565b9250506040612f3a86828701612e6f565b9150509250925092565b600073ffffffffffffffffffffffffffffffffffffffff82169050919050565b6000612f6f82612f44565b9050919050565b612f7f81612f64565b82525050565b6000602082019050612f9a6000830184612f76565b92915050565b612fa981612f64565b8114612fb457600080fd5b50565b600081359050612fc681612fa0565b92915050565b600060208284031215612fe257612fe1612e53565b5b6000612ff084828501612fb7565b91505092915050565b600081519050919050565b600082825260208201905092915050565b60005b83811015613033578082015181840152602081019050613018565b60008484015250505050565b6000601f19601f8301169050919050565b600061305b82612ff9565b6130658185613004565b9350613075818560208601613015565b61307e8161303f565b840191505092915050565b600060208201905081810360008301526130a38184613050565b905092915050565b6000819050919050565b60006130d06130cb6130c684612f44565b6130ab565b612f44565b9050919050565b60006130e2826130b5565b9050919050565b60006130f4826130d7565b9050919050565b613104816130e9565b82525050565b600060208201905061311f60008301846130fb565b92915050565b7f4e656564206d6f72652045544820746f20737761700000000000000000000000600082015250565b600061315b601583613004565b915061316682613125565b602082019050919050565b6000602082019050818103600083015261318a8161314e565b9050919050565b7f53776170203c3d20796f75722062616c616e6365000000000000000000000000600082015250565b60006131c7601483613004565b91506131d282613191565b602082019050919050565b600060208201905081810360008301526131f6816131ba565b9050919050565b7f4e487b7100000000000000000000000000000000000000000000000000000000600052601160045260246000fd5b600061323782612e11565b915061324283612e11565b925082820261325081612e11565b91508282048414831517613267576132666131fd565b5b5092915050565b7f4e487b7100000000000000000000000000000000000000000000000000000000600052601260045260246000fd5b60006132a882612e11565b91506132b383612e11565b9250826132c3576132c261326e565b5b828204905092915050565b60006132d982612e11565b91506132e483612e11565b92508282019050808211156132fc576132fb6131fd565b5b92915050565b600061330d82612e11565b915061331883612e11565b92508282039050818111156133305761332f6131fd565b5b92915050565b7f536c6970706167652073686f756c642062652061766f69646564000000000000600082015250565b600061336c601a83613004565b915061337782613336565b602082019050919050565b6000602082019050818103600083015261339b8161335f565b9050919050565b7f43616e6e6f74207377617020616c6c20746f6b656e7300000000000000000000600082015250565b60006133d8601683613004565b91506133e3826133a2565b602082019050919050565b60006020820190508181036000830152613407816133cb565b9050919050565b60006040820190506134236000830185612f76565b6134306020830184612e1b565b9392505050565b60008115159050919050565b61344c81613437565b811461345757600080fd5b50565b60008151905061346981613443565b92915050565b60006020828403121561348557613484612e53565b5b60006134938482850161345a565b91505092915050565b6000815190506134ab81612e58565b92915050565b6000602082840312156134c7576134c6612e53565b5b60006134d58482850161349c565b91505092915050565b7f4e487b7100000000000000000000000000000000000000000000000000000000600052603260045260246000fd5b600061351882612e11565b91507fffffffffffffffffffffffffffffffffffffffffffffffffffffffffffffffff820361354a576135496131fd565b5b600182019050919050565b7f546f6b656e20726573657276657320776173206e6f7420300000000000000000600082015250565b600061358b601883613004565b915061359682613555565b602082019050919050565b600060208201905081810360008301526135ba8161357e565b9050919050565b7f45544820726573657276657320776173206e6f7420302e000000000000000000600082015250565b60006135f7601783613004565b9150613602826135c1565b602082019050919050565b60006020820190508181036000830152613626816135ea565b9050919050565b7f4e6565642065746820746f2063726561746520706f6f6c2e0000000000000000600082015250565b6000613663601883613004565b915061366e8261362d565b602082019050919050565b6000602082019050818103600083015261369281613656565b9050919050565b7f4e6f74206861766520656e6f75676820746f6b656e7320746f2063726561746560008201527f2074686520706f6f6c0000000000000000000000000000000000000000000000602082015250565b60006136f5602983613004565b915061370082613699565b604082019050919050565b60006020820190508181036000830152613724816136e8565b9050919050565b7f4e65656420746f6b656e7320746f2063726561746520706f6f6c2e0000000000600082015250565b6000613761601b83613004565b915061376c8261372b565b602082019050919050565b6000602082019050818103600083015261379081613754565b9050919050565b60006060820190506137ac6000830186612f76565b6137b96020830185612f76565b6137c66040830184612e1b565b949350505050565b7f596f75206172656e277420746865206c69717569646974792070726f7669646560008201527f7200000000000000000000000000000000000000000000000000000000000000602082015250565b600061382a602183613004565b9150613835826137ce565b604082019050919050565b600060208201905081810360008301526138598161381d565b9050919050565b7f4e6565642072656d6f7665206d6f726520455448000000000000000000000000600082015250565b6000613896601483613004565b91506138a182613860565b602082019050919050565b600060208201905081810360008301526138c581613889565b9050919050565b7f41637475616c5f65786368616e67655f726174652073686f756c64206265203c60008201527f3d206d61785f65786368616e67655f7261746500000000000000000000000000602082015250565b6000613928603383613004565b9150613933826138cc565b604082019050919050565b600060208201905081810360008301526139578161391b565b9050919050565b7f41637475616c5f65786368616e67655f726174652073686f756c64206265203e60008201527f3d206d696e5f65786368616e67655f7261746500000000000000000000000000602082015250565b60006139ba603383613004565b91506139c58261395e565b604082019050919050565b600060208201905081810360008301526139e9816139ad565b9050919050565b7f4e6565642045544820746f20616464204c697175696469747900000000000000600082015250565b6000613a26601983613004565b9150613a31826139f0565b602082019050919050565b60006020820190508181036000830152613a5581613a19565b9050919050565b7f5468652065786368616e676520726174652073686f756c64206265203c3d206d60008201527f61785f6368616e67655f72617465000000000000000000000000000000000000602082015250565b6000613ab8602e83613004565b9150613ac382613a5c565b604082019050919050565b60006020820190508181036000830152613ae781613aab565b9050919050565b7f5468652065786368616e676520726174652073686f756c64206265203e3d206d60008201527f696e5f6368616e67655f72617465000000000000000000000000000000000000602082015250565b6000613b4a602e83613004565b9150613b5582613aee565b604082019050919050565b60006020820190508181036000830152613b7981613b3d565b9050919050565b7f4e6f74206861766520656e6f75676820746f6b656e7320746f20616464206c6960008201527f7175696469747900000000000000000000000000000000000000000000000000602082015250565b6000613bdc602783613004565b9150613be782613b80565b604082019050919050565b60006020820190508181036000830152613c0b81613bcf565b9050919050565b7f4e656564206d6f726520746f6b656e7320746f20737761700000000000000000600082015250565b6000613c48601883613004565b9150613c5382613c12565b602082019050919050565b60006020820190508181036000830152613c7781613c3b565b9050919050565b7f53776170203c3d20796f757220746f6b656e7300000000000000000000000000600082015250565b6000613cb4601383613004565b9150613cbf82613c7e565b602082019050919050565b60006020820190508181036000830152613ce381613ca7565b9050919050565b7f43616e6e6f74207377617020616c6c2065746800000000000000000000000000600082015250565b6000613d20601383613004565b9150613d2b82613cea565b602082019050919050565b60006020820190508181036000830152613d4f81613d13565b9050919050565b7f4f776e61626c653a206e6577206f776e657220697320746865207a65726f206160008201527f6464726573730000000000000000000000000000000000000000000000000000602082015250565b6000613db2602683613004565b9150613dbd82613d56565b604082019050919050565b60006020820190508181036000830152613de181613da5565b9050919050565b7f4e487b7100000000000000000000000000000000000000000000000000000000600052602260045260246000fd5b60006002820490506001821680613e2f57607f821691505b602082108103613e4257613e41613de8565b5b50919050565b60006060820190508181036000830152613e628186613050565b9050613e716020830185612e1b565b8181036040830152613e838184613050565b9050949350505050565b60006040820190508181036000830152613ea78185613050565b9050613eb66020830184612e1b565b9392505050565b60006040820190508181036000830152613ed78185613050565b9050613ee66020830184612f76565b9392505050565b7f4f776e61626c653a2063616c6c6572206973206e6f7420746865206f776e6572600082015250565b6000613f23602083613004565b9150613f2e82613eed565b602082019050919050565b60006020820190508181036000830152613f5281613f16565b9050919050565b7f73706563696669656420696e646578206973206c6172676572207468616e207460008201527f6865206e756d626572206f66206c707300000000000000000000000000000000602082015250565b6000613fb5603083613004565b9150613fc082613f59565b604082019050919050565b60006020820190508181036000830152613fe481613fa8565b9050919050565b7f4e487b7100000000000000000000000000000000000000000000000000000000600052603160045260246000fd5b7f4e487b7100000000000000000000000000000000000000000000000000000000600052605160045260246000fdfe23746f6b656e73206f6620636f6e7472616374206265666f726520737761703a20a2646970667358221220aa21318477dfd1e3757c6bd0fd34523e3c736cff51cdccd9e27a712cc2d73cfe64736f6c63430008110033",
  "linkReferences": {},
  "deployedLinkReferences": {}
}